{
  "contractName": "FishGame",
  "abi": [
    {
      "inputs": [],
      "stateMutability": "nonpayable",
      "type": "constructor"
    },
    {
      "anonymous": false,
      "inputs": [
        {
          "indexed": true,
          "internalType": "address",
          "name": "fisherman",
          "type": "address"
        },
        {
          "indexed": false,
          "internalType": "uint256",
          "name": "fishSize",
          "type": "uint256"
        },
        {
          "indexed": false,
          "internalType": "uint256",
          "name": "ethReward",
          "type": "uint256"
        }
      ],
      "name": "FishCaught",
      "type": "event"
    },
    {
      "inputs": [],
      "name": "normalRodPrice",
      "outputs": [
        {
          "internalType": "uint256",
          "name": "",
          "type": "uint256"
        }
      ],
      "stateMutability": "view",
      "type": "function"
    },
    {
      "inputs": [],
      "name": "owner",
      "outputs": [
        {
          "internalType": "address",
          "name": "",
          "type": "address"
        }
      ],
      "stateMutability": "view",
      "type": "function"
    },
    {
      "inputs": [
        {
          "internalType": "address",
          "name": "",
          "type": "address"
        }
      ],
      "name": "rodOwners",
      "outputs": [
        {
          "internalType": "uint256",
          "name": "",
          "type": "uint256"
        }
      ],
      "stateMutability": "view",
      "type": "function"
    },
    {
      "inputs": [],
      "name": "superRodPrice",
      "outputs": [
        {
          "internalType": "uint256",
          "name": "",
          "type": "uint256"
        }
      ],
      "stateMutability": "view",
      "type": "function"
    },
    {
      "inputs": [],
      "name": "buyRod",
      "outputs": [],
      "stateMutability": "payable",
      "type": "function"
    },
    {
      "inputs": [],
      "name": "buySuperRod",
      "outputs": [],
      "stateMutability": "payable",
      "type": "function"
    },
    {
      "inputs": [],
      "name": "goFishing",
      "outputs": [],
      "stateMutability": "nonpayable",
      "type": "function"
    },
    {
      "inputs": [],
      "name": "getAccountBalance",
      "outputs": [
        {
          "internalType": "uint256",
          "name": "",
          "type": "uint256"
        }
      ],
      "stateMutability": "view",
      "type": "function"
    },
    {
      "inputs": [
        {
          "internalType": "address",
          "name": "account",
          "type": "address"
        }
      ],
      "name": "getRodType",
      "outputs": [
        {
          "internalType": "uint256",
          "name": "",
          "type": "uint256"
        }
      ],
      "stateMutability": "view",
      "type": "function"
    }
  ],
  "bytecode": "0x608060405267016345785d8a0000600155670de0b6b3a7640000600255348015610027575f80fd5b50335f806101000a81548173ffffffffffffffffffffffffffffffffffffffff021916908373ffffffffffffffffffffffffffffffffffffffff160217905550610711806100745f395ff3fe608060405260043610610085575f3560e01c80638da5cb5b116100585780638da5cb5b146101235780639d78b6761461014d578063bb478f5a14610157578063df06dda614610181578063e9d4a55b1461019757610085565b806339f9daeb1461008957806357081697146100c5578063686ee787146100cf5780636896fabf146100f9575b5f80fd5b348015610094575f80fd5b506100af60048036038101906100aa9190610550565b6101d3565b6040516100bc9190610593565b60405180910390f35b6100cd610219565b005b3480156100da575f80fd5b506100e3610322565b6040516100f09190610593565b60405180910390f35b348015610104575f80fd5b5061010d610328565b60405161011a9190610593565b60405180910390f35b34801561012e575f80fd5b50610137610346565b60405161014491906105bb565b60405180910390f35b610155610369565b005b348015610162575f80fd5b5061016b610472565b6040516101789190610593565b60405180910390f35b34801561018c575f80fd5b50610195610478565b005b3480156101a2575f80fd5b506101bd60048036038101906101b89190610550565b6104dd565b6040516101ca9190610593565b60405180910390f35b5f60035f8373ffffffffffffffffffffffffffffffffffffffff1673ffffffffffffffffffffffffffffffffffffffff1681526020019081526020015f20549050919050565b60015434101561025e576040517f08c379a00000000000000000000000000000000000000000000000000000000081526004016102559061062e565b60405180910390fd5b5f60035f3373ffffffffffffffffffffffffffffffffffffffff1673ffffffffffffffffffffffffffffffffffffffff1681526020019081526020015f2054146102dd576040517f08c379a00000000000000000000000000000000000000000000000000000000081526004016102d490610696565b60405180910390fd5b600160035f3373ffffffffffffffffffffffffffffffffffffffff1673ffffffffffffffffffffffffffffffffffffffff1681526020019081526020015f2081905550565b60015481565b5f3373ffffffffffffffffffffffffffffffffffffffff1631905090565b5f8054906101000a900473ffffffffffffffffffffffffffffffffffffffff1681565b6002543410156103ae576040517f08c379a00000000000000000000000000000000000000000000000000000000081526004016103a59061062e565b60405180910390fd5b5f60035f3373ffffffffffffffffffffffffffffffffffffffff1673ffffffffffffffffffffffffffffffffffffffff1681526020019081526020015f20541461042d576040517f08c379a000000000000000000000000000000000000000000000000000000000815260040161042490610696565b60405180910390fd5b600260035f3373ffffffffffffffffffffffffffffffffffffffff1673ffffffffffffffffffffffffffffffffffffffff1681526020019081526020015f2081905550565b60025481565b5f600590505f6729a2241af62c000090503373ffffffffffffffffffffffffffffffffffffffff167f7bb442c67d22fdb6842dd96babf202a516af394bfbe1233f416fc4106afd266983836040516104d19291906106b4565b60405180910390a25050565b6003602052805f5260405f205f915090505481565b5f80fd5b5f73ffffffffffffffffffffffffffffffffffffffff82169050919050565b5f61051f826104f6565b9050919050565b61052f81610515565b8114610539575f80fd5b50565b5f8135905061054a81610526565b92915050565b5f60208284031215610565576105646104f2565b5b5f6105728482850161053c565b91505092915050565b5f819050919050565b61058d8161057b565b82525050565b5f6020820190506105a65f830184610584565b92915050565b6105b581610515565b82525050565b5f6020820190506105ce5f8301846105ac565b92915050565b5f82825260208201905092915050565b7f496e73756666696369656e74207061796d656e740000000000000000000000005f82015250565b5f6106186014836105d4565b9150610623826105e4565b602082019050919050565b5f6020820190508181035f8301526106458161060c565b9050919050565b7f526f6420616c72656164792070757263686173656400000000000000000000005f82015250565b5f6106806015836105d4565b915061068b8261064c565b602082019050919050565b5f6020820190508181035f8301526106ad81610674565b9050919050565b5f6040820190506106c75f830185610584565b6106d46020830184610584565b939250505056fea264697066735822122040475024a4f12594c5483603622c1517518076cd1a52134c796ab73f75f458b764736f6c63430008140033",
  "immutableReferences": {},
  "source": "// SPDX-License-Identifier: MIT\npragma solidity ^0.8.0;\n\ncontract FishGame {\n    address public owner;\n    uint256 public normalRodPrice = 0.1 ether;\n    uint256 public superRodPrice = 1.0 ether;\n\n    mapping(address => uint256) public rodOwners; // 0: , 1: NormalRod, 2: SuperRod\n\n    event FishCaught(address indexed fisherman, uint256 fishSize, uint256 ethReward);\n\n    modifier onlyOwner() {\n        require(msg.sender == owner, \"Not the owner\");\n        _;\n    }\n\n    constructor() {\n        owner = msg.sender;\n    }\n\n    // 0.1ETHNormalRod\n    function buyRod() external payable {\n        require(msg.value >= normalRodPrice, \"Insufficient payment\");\n        require(rodOwners[msg.sender] == 0, \"Rod already purchased\");\n        rodOwners[msg.sender] = 1; // 1: NormalRod\n    }\n\n    // 1.0ETHSuperRod\n    function buySuperRod() external payable {\n        require(msg.value >= superRodPrice, \"Insufficient payment\");\n        require(rodOwners[msg.sender] == 0, \"Rod already purchased\");\n        rodOwners[msg.sender] = 2; // 2: SuperRod\n    }\n\n    // \n    function goFishing() external {\n        // \n\n        uint256 fishSize = 5; // \n        uint256 ethReward = 3 ether; // 3ETH\n\n        emit FishCaught(msg.sender, fishSize, ethReward);\n    }\n\n    // ETH\n    function getAccountBalance() external view returns (uint256) {\n        return msg.sender.balance;\n    }\n\n    // \n    function getRodType(address account) external view returns (uint256) {\n        return rodOwners[account];\n    }\n}\n",
  "sourcePath": "/home/iniad/test/contracts/FishingGame.sol",
  "compiler": {
    "name": "solc",
    "version": "0.8.20+commit.a1b79de6.Emscripten.clang"
  },
  "schemaVersion": "3.4.14",
  "updatedAt": "2023-09-19T09:34:21.044Z",
  "devdoc": {
    "kind": "dev",
    "methods": {},
    "version": 1
  },
  "userdoc": {
    "kind": "user",
    "methods": {},
    "version": 1
  }
}