{
  "contractName": "fishing",
  "abi": [
    {
      "inputs": [
        {
          "internalType": "address",
          "name": "_fishAddress",
          "type": "address"
        },
        {
          "internalType": "address",
          "name": "_ownerAddress",
          "type": "address"
        }
      ],
      "stateMutability": "nonpayable",
      "type": "constructor"
    },
    {
      "inputs": [],
      "name": "send",
      "outputs": [],
      "stateMutability": "nonpayable",
      "type": "function"
    },
    {
      "inputs": [
        {
          "internalType": "address",
          "name": "_tokenAddr",
          "type": "address"
        }
      ],
      "name": "setTokenAddress",
      "outputs": [],
      "stateMutability": "nonpayable",
      "type": "function"
    },
    {
      "inputs": [
        {
          "internalType": "uint256",
          "name": "_amount",
          "type": "uint256"
        }
      ],
      "name": "setfishDripAmount",
      "outputs": [],
      "stateMutability": "nonpayable",
      "type": "function"
    },
    {
      "inputs": [
        {
          "internalType": "address",
          "name": "_receiver",
          "type": "address"
        },
        {
          "internalType": "uint256",
          "name": "_amount",
          "type": "uint256"
        }
      ],
      "name": "withdrawTokens",
      "outputs": [],
      "stateMutability": "nonpayable",
      "type": "function"
    }
  ],
  "bytecode": "0x60806040526001600355348015610014575f80fd5b5060405162000ef038038062000ef08339818101604052810190610038919061011c565b815f806101000a81548173ffffffffffffffffffffffffffffffffffffffff021916908373ffffffffffffffffffffffffffffffffffffffff1602179055508060015f6101000a81548173ffffffffffffffffffffffffffffffffffffffff021916908373ffffffffffffffffffffffffffffffffffffffff160217905550505061015a565b5f80fd5b5f73ffffffffffffffffffffffffffffffffffffffff82169050919050565b5f6100eb826100c2565b9050919050565b6100fb816100e1565b8114610105575f80fd5b50565b5f81519050610116816100f2565b92915050565b5f8060408385031215610132576101316100be565b5b5f61013f85828601610108565b925050602061015085828601610108565b9150509250929050565b610d8880620001685f395ff3fe608060405234801561000f575f80fd5b506004361061004a575f3560e01c806306b091f91461004e57806326a4e8d21461006a578063b46300ec14610086578063d014a81f14610090575b5f80fd5b61006860048036038101906100639190610796565b6100ac565b005b610084600480360381019061007f91906107d4565b6102b3565b005b61008e610384565b005b6100aa60048036038101906100a591906107ff565b61066c565b005b60015f9054906101000a900473ffffffffffffffffffffffffffffffffffffffff1673ffffffffffffffffffffffffffffffffffffffff163373ffffffffffffffffffffffffffffffffffffffff161461013b576040517f08c379a000000000000000000000000000000000000000000000000000000000815260040161013290610884565b60405180910390fd5b805f8054906101000a900473ffffffffffffffffffffffffffffffffffffffff1673ffffffffffffffffffffffffffffffffffffffff166370a08231306040518263ffffffff1660e01b815260040161019491906108b1565b602060405180830381865afa1580156101af573d5f803e3d5ffd5b505050506040513d601f19601f820116820180604052508101906101d391906108de565b1015610214576040517f08c379a000000000000000000000000000000000000000000000000000000000815260040161020b90610953565b60405180910390fd5b5f8054906101000a900473ffffffffffffffffffffffffffffffffffffffff1673ffffffffffffffffffffffffffffffffffffffff1663a9059cbb83836040518363ffffffff1660e01b815260040161026e929190610980565b6020604051808303815f875af115801561028a573d5f803e3d5ffd5b505050506040513d601f19601f820116820180604052508101906102ae91906109dc565b505050565b60015f9054906101000a900473ffffffffffffffffffffffffffffffffffffffff1673ffffffffffffffffffffffffffffffffffffffff163373ffffffffffffffffffffffffffffffffffffffff1614610342576040517f08c379a000000000000000000000000000000000000000000000000000000000815260040161033990610884565b60405180910390fd5b805f806101000a81548173ffffffffffffffffffffffffffffffffffffffff021916908373ffffffffffffffffffffffffffffffffffffffff16021790555050565b60015f8054906101000a900473ffffffffffffffffffffffffffffffffffffffff1673ffffffffffffffffffffffffffffffffffffffff166370a08231306040518263ffffffff1660e01b81526004016103de91906108b1565b602060405180830381865afa1580156103f9573d5f803e3d5ffd5b505050506040513d601f19601f8201168201806040525081019061041d91906108de565b1161045d576040517f08c379a000000000000000000000000000000000000000000000000000000000815260040161045490610a51565b60405180910390fd5b4260025f3373ffffffffffffffffffffffffffffffffffffffff1673ffffffffffffffffffffffffffffffffffffffff1681526020019081526020015f2054106104dc576040517f08c379a00000000000000000000000000000000000000000000000000000000081526004016104d390610ab9565b60405180910390fd5b61012c426104ea9190610b04565b60025f3373ffffffffffffffffffffffffffffffffffffffff1673ffffffffffffffffffffffffffffffffffffffff1681526020019081526020015f20819055505f8054906101000a900473ffffffffffffffffffffffffffffffffffffffff1673ffffffffffffffffffffffffffffffffffffffff1663a9059cbb335f8054906101000a900473ffffffffffffffffffffffffffffffffffffffff1673ffffffffffffffffffffffffffffffffffffffff1663313ce5676040518163ffffffff1660e01b8152600401602060405180830381865afa1580156105cf573d5f803e3d5ffd5b505050506040513d601f19601f820116820180604052508101906105f39190610b6d565b600a6105ff9190610cc7565b60035461060c9190610d11565b6040518363ffffffff1660e01b8152600401610629929190610980565b6020604051808303815f875af1158015610645573d5f803e3d5ffd5b505050506040513d601f19601f8201168201806040525081019061066991906109dc565b50565b60015f9054906101000a900473ffffffffffffffffffffffffffffffffffffffff1673ffffffffffffffffffffffffffffffffffffffff163373ffffffffffffffffffffffffffffffffffffffff16146106fb576040517f08c379a00000000000000000000000000000000000000000000000000000000081526004016106f290610884565b60405180910390fd5b8060038190555050565b5f80fd5b5f73ffffffffffffffffffffffffffffffffffffffff82169050919050565b5f61073282610709565b9050919050565b61074281610728565b811461074c575f80fd5b50565b5f8135905061075d81610739565b92915050565b5f819050919050565b61077581610763565b811461077f575f80fd5b50565b5f813590506107908161076c565b92915050565b5f80604083850312156107ac576107ab610705565b5b5f6107b98582860161074f565b92505060206107ca85828601610782565b9150509250929050565b5f602082840312156107e9576107e8610705565b5b5f6107f68482850161074f565b91505092915050565b5f6020828403121561081457610813610705565b5b5f61082184828501610782565b91505092915050565b5f82825260208201905092915050565b7f666973684572726f723a2043616c6c6572206e6f74206f776e657200000000005f82015250565b5f61086e601b8361082a565b91506108798261083a565b602082019050919050565b5f6020820190508181035f83015261089b81610862565b9050919050565b6108ab81610728565b82525050565b5f6020820190506108c45f8301846108a2565b92915050565b5f815190506108d88161076c565b92915050565b5f602082840312156108f3576108f2610705565b5b5f610900848285016108ca565b91505092915050565b7f666973684572726f723a20496e73756666696369656e742066756e64730000005f82015250565b5f61093d601d8361082a565b915061094882610909565b602082019050919050565b5f6020820190508181035f83015261096a81610931565b9050919050565b61097a81610763565b82525050565b5f6040820190506109935f8301856108a2565b6109a06020830184610971565b9392505050565b5f8115159050919050565b6109bb816109a7565b81146109c5575f80fd5b50565b5f815190506109d6816109b2565b92915050565b5f602082840312156109f1576109f0610705565b5b5f6109fe848285016109c8565b91505092915050565b7f666973684572726f723a20456d707479000000000000000000000000000000005f82015250565b5f610a3b60108361082a565b9150610a4682610a07565b602082019050919050565b5f6020820190508181035f830152610a6881610a2f565b9050919050565b7f666973684572726f723a2054727920616761696e206c617465720000000000005f82015250565b5f610aa3601a8361082a565b9150610aae82610a6f565b602082019050919050565b5f6020820190508181035f830152610ad081610a97565b9050919050565b7f4e487b71000000000000000000000000000000000000000000000000000000005f52601160045260245ffd5b5f610b0e82610763565b9150610b1983610763565b9250828201905080821115610b3157610b30610ad7565b5b92915050565b5f60ff82169050919050565b610b4c81610b37565b8114610b56575f80fd5b50565b5f81519050610b6781610b43565b92915050565b5f60208284031215610b8257610b81610705565b5b5f610b8f84828501610b59565b91505092915050565b5f8160011c9050919050565b5f808291508390505b6001851115610bed57808604811115610bc957610bc8610ad7565b5b6001851615610bd85780820291505b8081029050610be685610b98565b9450610bad565b94509492505050565b5f82610c055760019050610cc0565b81610c12575f9050610cc0565b8160018114610c285760028114610c3257610c61565b6001915050610cc0565b60ff841115610c4457610c43610ad7565b5b8360020a915084821115610c5b57610c5a610ad7565b5b50610cc0565b5060208310610133831016604e8410600b8410161715610c965782820a905083811115610c9157610c90610ad7565b5b610cc0565b610ca38484846001610ba4565b92509050818404811115610cba57610cb9610ad7565b5b81810290505b9392505050565b5f610cd182610763565b9150610cdc83610b37565b9250610d097fffffffffffffffffffffffffffffffffffffffffffffffffffffffffffffffff8484610bf6565b905092915050565b5f610d1b82610763565b9150610d2683610763565b9250828202610d3481610763565b91508282048414831517610d4b57610d4a610ad7565b5b509291505056fea2646970667358221220121516743fd32a1ef95b0d43f5af1e8cb67ce7e4d0d0a71da56ae4998075f02264736f6c63430008140033",
  "immutableReferences": {},
  "source": "// SPDX-License-Identifier: MIT\npragma solidity ^0.8.4;\n\ninterface ERC20 {\n    \n     /**\n     * @dev returns the tokens owned by `account`.\n     */\n    function balanceOf(address account) external view returns (uint256);\n\n     /**\n     * @dev returns the decimal places of a token\n     */\n    function decimals() external view returns (uint8);\n\n    /**\n     * @dev transfers the `amount` of tokens from caller's account\n     * to the `recipient` account.\n     *\n     * returns boolean value indicating the operation status.\n     *\n     * Emits a {Transfer} event\n     */\n    function transfer(address recipient, uint256 amount)\n        external\n        returns (bool);\n \n}\n\ncontract fishing {\n    \n    // The underlying token of the fish\n    ERC20 token;\n    \n    // The address of the fish owner\n    address owner;\n    \n    // For rate limiting\n    mapping(address=>uint256) nextRequestAt;\n    \n    // No.of tokens to send when requested\n    uint256 fishDripAmount = 1;\n    \n    // Sets the addresses of the Owner and the underlying token\n    constructor (address _fishAddress, address _ownerAddress) {\n        token = ERC20(_fishAddress);\n        owner = _ownerAddress;\n    }   \n    \n    // Verifies whether the caller is the owner \n    modifier onlyOwner{\n        require(msg.sender == owner,\"fishError: Caller not owner\");\n        _;\n    }\n    \n    // Sends the amount of token to the caller.\n    function send() external {\n        require(token.balanceOf(address(this)) > 1,\"fishError: Empty\");\n        require(nextRequestAt[msg.sender] < block.timestamp, \"fishError: Try again later\");\n        \n        // Next request from the address can be made only after 5 minutes         \n        nextRequestAt[msg.sender] = block.timestamp + (5 minutes); \n        \n        token.transfer(msg.sender,fishDripAmount * 10**token.decimals());\n    }  \n    \n    // Updates the underlying token address\n     function setTokenAddress(address _tokenAddr) external onlyOwner {\n        token = ERC20(_tokenAddr);\n    }    \n    \n    // Updates the drip rate\n     function setfishDripAmount(uint256 _amount) external onlyOwner {\n        fishDripAmount = _amount;\n    }  \n     \n     \n     // Allows the owner to withdraw tokens from the contract.\n     function withdrawTokens(address _receiver, uint256 _amount) external onlyOwner {\n        require(token.balanceOf(address(this)) >= _amount,\"fishError: Insufficient funds\");\n        token.transfer(_receiver,_amount);\n    }    \n}",
  "sourcePath": "/home/iniad/fishingdapp/contracts/Fish.sol",
  "compiler": {
    "name": "solc",
    "version": "0.8.20+commit.a1b79de6.Emscripten.clang"
  },
  "schemaVersion": "3.4.14",
  "updatedAt": "2023-07-29T22:31:30.293Z",
  "devdoc": {
    "kind": "dev",
    "methods": {},
    "version": 1
  },
  "userdoc": {
    "kind": "user",
    "methods": {},
    "version": 1
  }
}