{
  "contractName": "FishingGame",
  "abi": [
    {
      "inputs": [
        {
          "internalType": "address",
          "name": "_tokenAddress",
          "type": "address"
        }
      ],
      "stateMutability": "nonpayable",
      "type": "constructor"
    },
    {
      "anonymous": false,
      "inputs": [
        {
          "indexed": true,
          "internalType": "address",
          "name": "fisherman",
          "type": "address"
        },
        {
          "indexed": false,
          "internalType": "uint256",
          "name": "fishSize",
          "type": "uint256"
        },
        {
          "indexed": false,
          "internalType": "uint256",
          "name": "tokenReward",
          "type": "uint256"
        }
      ],
      "name": "FishCaught",
      "type": "event"
    },
    {
      "anonymous": false,
      "inputs": [
        {
          "indexed": true,
          "internalType": "address",
          "name": "previousOwner",
          "type": "address"
        },
        {
          "indexed": true,
          "internalType": "address",
          "name": "newOwner",
          "type": "address"
        }
      ],
      "name": "OwnershipTransferred",
      "type": "event"
    },
    {
      "anonymous": false,
      "inputs": [
        {
          "indexed": true,
          "internalType": "address",
          "name": "buyer",
          "type": "address"
        },
        {
          "indexed": false,
          "internalType": "uint256",
          "name": "price",
          "type": "uint256"
        }
      ],
      "name": "RodPurchased",
      "type": "event"
    },
    {
      "inputs": [],
      "name": "fishToken",
      "outputs": [
        {
          "internalType": "contract IERC20",
          "name": "",
          "type": "address"
        }
      ],
      "stateMutability": "view",
      "type": "function",
      "constant": true
    },
    {
      "inputs": [
        {
          "internalType": "uint256",
          "name": "",
          "type": "uint256"
        }
      ],
      "name": "fishTypes",
      "outputs": [
        {
          "internalType": "uint256",
          "name": "fishSize",
          "type": "uint256"
        },
        {
          "internalType": "uint256",
          "name": "tokenReward",
          "type": "uint256"
        }
      ],
      "stateMutability": "view",
      "type": "function",
      "constant": true
    },
    {
      "inputs": [],
      "name": "normalRodPrice",
      "outputs": [
        {
          "internalType": "uint256",
          "name": "",
          "type": "uint256"
        }
      ],
      "stateMutability": "view",
      "type": "function",
      "constant": true
    },
    {
      "inputs": [],
      "name": "owner",
      "outputs": [
        {
          "internalType": "address",
          "name": "",
          "type": "address"
        }
      ],
      "stateMutability": "view",
      "type": "function",
      "constant": true
    },
    {
      "inputs": [],
      "name": "renounceOwnership",
      "outputs": [],
      "stateMutability": "nonpayable",
      "type": "function"
    },
    {
      "inputs": [],
      "name": "superRodPrice",
      "outputs": [
        {
          "internalType": "uint256",
          "name": "",
          "type": "uint256"
        }
      ],
      "stateMutability": "view",
      "type": "function",
      "constant": true
    },
    {
      "inputs": [
        {
          "internalType": "address",
          "name": "newOwner",
          "type": "address"
        }
      ],
      "name": "transferOwnership",
      "outputs": [],
      "stateMutability": "nonpayable",
      "type": "function"
    },
    {
      "inputs": [],
      "name": "buyRod",
      "outputs": [],
      "stateMutability": "payable",
      "type": "function",
      "payable": true
    },
    {
      "inputs": [],
      "name": "goFishing",
      "outputs": [],
      "stateMutability": "nonpayable",
      "type": "function"
    },
    {
      "inputs": [
        {
          "internalType": "address",
          "name": "_tokenAddress",
          "type": "address"
        }
      ],
      "name": "setFishTokenAddress",
      "outputs": [],
      "stateMutability": "nonpayable",
      "type": "function"
    },
    {
      "inputs": [
        {
          "internalType": "uint256",
          "name": "_normalRodPrice",
          "type": "uint256"
        },
        {
          "internalType": "uint256",
          "name": "_superRodPrice",
          "type": "uint256"
        }
      ],
      "name": "setRodPrices",
      "outputs": [],
      "stateMutability": "nonpayable",
      "type": "function"
    },
    {
      "inputs": [],
      "name": "getNormalRodPrice",
      "outputs": [
        {
          "internalType": "uint256",
          "name": "",
          "type": "uint256"
        }
      ],
      "stateMutability": "view",
      "type": "function",
      "constant": true
    },
    {
      "inputs": [],
      "name": "getSuperRodPrice",
      "outputs": [
        {
          "internalType": "uint256",
          "name": "",
          "type": "uint256"
        }
      ],
      "stateMutability": "view",
      "type": "function",
      "constant": true
    }
  ],
  "bytecode": "0x608060405267016345785d8a0000600355670de0b6b3a764000060045534801562000028575f80fd5b506040516200129e3803806200129e83398181016040528101906200004e91906200029c565b6200006e620000626200016f60201b60201c565b6200017660201b60201c565b8060025f6101000a81548173ffffffffffffffffffffffffffffffffffffffff021916908373ffffffffffffffffffffffffffffffffffffffff160217905550604051806040016040528060058152602001600a81525060015f600181526020019081526020015f205f820151815f0155602082015181600101559050506040518060400160405280600a8152602001601481525060015f600281526020019081526020015f205f820151815f0155602082015181600101559050506040518060400160405280600f8152602001601e81525060015f600381526020019081526020015f205f820151815f01556020820151816001015590505050620002cc565b5f33905090565b5f805f9054906101000a900473ffffffffffffffffffffffffffffffffffffffff169050815f806101000a81548173ffffffffffffffffffffffffffffffffffffffff021916908373ffffffffffffffffffffffffffffffffffffffff1602179055508173ffffffffffffffffffffffffffffffffffffffff168173ffffffffffffffffffffffffffffffffffffffff167f8be0079c531659141344cd1fd0a4f28419497f9722a3daafe3b4186f6b6457e060405160405180910390a35050565b5f80fd5b5f73ffffffffffffffffffffffffffffffffffffffff82169050919050565b5f62000266826200023b565b9050919050565b62000278816200025a565b811462000283575f80fd5b50565b5f8151905062000296816200026d565b92915050565b5f60208284031215620002b457620002b362000237565b5b5f620002c38482850162000286565b91505092915050565b610fc480620002da5f395ff3fe6080604052600436106100c1575f3560e01c8063715018a61161007e578063c85a08e511610058578063c85a08e51461021c578063df06dda614610244578063e5bc18a11461025a578063f2fde38b14610284576100c1565b8063715018a6146101b25780638da5cb5b146101c8578063bb478f5a146101f2576100c1565b806305b258a7146100c557806331e8ae4814610102578063570816971461012c5780635d5f7aaf14610136578063686ee7871461015e5780636a1e2dc114610188575b5f80fd5b3480156100d0575f80fd5b506100eb60048036038101906100e69190610907565b6102ac565b6040516100f9929190610941565b60405180910390f35b34801561010d575f80fd5b506101166102cc565b6040516101239190610968565b60405180910390f35b6101346102d5565b005b348015610141575f80fd5b5061015c60048036038101906101579190610981565b610375565b005b348015610169575f80fd5b5061017261038f565b60405161017f9190610968565b60405180910390f35b348015610193575f80fd5b5061019c610395565b6040516101a99190610a39565b60405180910390f35b3480156101bd575f80fd5b506101c66103ba565b005b3480156101d3575f80fd5b506101dc6103cd565b6040516101e99190610a72565b60405180910390f35b3480156101fd575f80fd5b506102066103f4565b6040516102139190610968565b60405180910390f35b348015610227575f80fd5b50610242600480360381019061023d9190610ab5565b6103fa565b005b34801561024f575f80fd5b50610258610445565b005b348015610265575f80fd5b5061026e6106ff565b60405161027b9190610968565b60405180910390f35b34801561028f575f80fd5b506102aa60048036038101906102a59190610ab5565b610708565b005b6001602052805f5260405f205f91509050805f0154908060010154905082565b5f600454905090565b6003543414806102e6575060045434145b610325576040517f08c379a000000000000000000000000000000000000000000000000000000000815260040161031c90610b3a565b60405180910390fd5b3373ffffffffffffffffffffffffffffffffffffffff167f7277c9d91df67d6d8ea4008f79471fac3f88c491f4b4c2937b96e560dbba0f943460405161036b9190610968565b60405180910390a2565b61037d61078a565b81600381905550806004819055505050565b60035481565b60025f9054906101000a900473ffffffffffffffffffffffffffffffffffffffff1681565b6103c261078a565b6103cb5f610808565b565b5f805f9054906101000a900473ffffffffffffffffffffffffffffffffffffffff16905090565b60045481565b61040261078a565b8060025f6101000a81548173ffffffffffffffffffffffffffffffffffffffff021916908373ffffffffffffffffffffffffffffffffffffffff16021790555050565b6003543373ffffffffffffffffffffffffffffffffffffffff163110156104a1576040517f08c379a000000000000000000000000000000000000000000000000000000000815260040161049890610bc8565b60405180910390fd5b606460025f9054906101000a900473ffffffffffffffffffffffffffffffffffffffff1673ffffffffffffffffffffffffffffffffffffffff166370a08231306040518263ffffffff1660e01b81526004016104fd9190610a72565b602060405180830381865afa158015610518573d5f803e3d5ffd5b505050506040513d601f19601f8201168201806040525081019061053c9190610bfa565b101561057d576040517f08c379a000000000000000000000000000000000000000000000000000000000815260040161057490610c95565b60405180910390fd5b5f6001600342443360405160200161059793929190610d18565b604051602081830303815290604052805190602001205f1c6105b99190610d81565b6105c39190610dde565b90505f60015f8381526020019081526020015f206040518060400160405290815f820154815260200160018201548152505090505f815f015111156106a45760025f9054906101000a900473ffffffffffffffffffffffffffffffffffffffff1673ffffffffffffffffffffffffffffffffffffffff1663a9059cbb3383602001516040518363ffffffff1660e01b8152600401610662929190610e11565b6020604051808303815f875af115801561067e573d5f803e3d5ffd5b505050506040513d601f19601f820116820180604052508101906106a29190610e6d565b505b3373ffffffffffffffffffffffffffffffffffffffff167f7bb442c67d22fdb6842dd96babf202a516af394bfbe1233f416fc4106afd2669825f015183602001516040516106f3929190610941565b60405180910390a25050565b5f600354905090565b61071061078a565b5f73ffffffffffffffffffffffffffffffffffffffff168173ffffffffffffffffffffffffffffffffffffffff160361077e576040517f08c379a000000000000000000000000000000000000000000000000000000000815260040161077590610f08565b60405180910390fd5b61078781610808565b50565b6107926108c9565b73ffffffffffffffffffffffffffffffffffffffff166107b06103cd565b73ffffffffffffffffffffffffffffffffffffffff1614610806576040517f08c379a00000000000000000000000000000000000000000000000000000000081526004016107fd90610f70565b60405180910390fd5b565b5f805f9054906101000a900473ffffffffffffffffffffffffffffffffffffffff169050815f806101000a81548173ffffffffffffffffffffffffffffffffffffffff021916908373ffffffffffffffffffffffffffffffffffffffff1602179055508173ffffffffffffffffffffffffffffffffffffffff168173ffffffffffffffffffffffffffffffffffffffff167f8be0079c531659141344cd1fd0a4f28419497f9722a3daafe3b4186f6b6457e060405160405180910390a35050565b5f33905090565b5f80fd5b5f819050919050565b6108e6816108d4565b81146108f0575f80fd5b50565b5f81359050610901816108dd565b92915050565b5f6020828403121561091c5761091b6108d0565b5b5f610929848285016108f3565b91505092915050565b61093b816108d4565b82525050565b5f6040820190506109545f830185610932565b6109616020830184610932565b9392505050565b5f60208201905061097b5f830184610932565b92915050565b5f8060408385031215610997576109966108d0565b5b5f6109a4858286016108f3565b92505060206109b5858286016108f3565b9150509250929050565b5f73ffffffffffffffffffffffffffffffffffffffff82169050919050565b5f819050919050565b5f610a016109fc6109f7846109bf565b6109de565b6109bf565b9050919050565b5f610a12826109e7565b9050919050565b5f610a2382610a08565b9050919050565b610a3381610a19565b82525050565b5f602082019050610a4c5f830184610a2a565b92915050565b5f610a5c826109bf565b9050919050565b610a6c81610a52565b82525050565b5f602082019050610a855f830184610a63565b92915050565b610a9481610a52565b8114610a9e575f80fd5b50565b5f81359050610aaf81610a8b565b92915050565b5f60208284031215610aca57610ac96108d0565b5b5f610ad784828501610aa1565b91505092915050565b5f82825260208201905092915050565b7f496e76616c696420726f642070726963650000000000000000000000000000005f82015250565b5f610b24601183610ae0565b9150610b2f82610af0565b602082019050919050565b5f6020820190508181035f830152610b5181610b18565b9050919050565b7f496e73756666696369656e742062616c616e636520746f20676f2066697368695f8201527f6e67000000000000000000000000000000000000000000000000000000000000602082015250565b5f610bb2602283610ae0565b9150610bbd82610b58565b604082019050919050565b5f6020820190508181035f830152610bdf81610ba6565b9050919050565b5f81519050610bf4816108dd565b92915050565b5f60208284031215610c0f57610c0e6108d0565b5b5f610c1c84828501610be6565b91505092915050565b7f496e73756666696369656e74204649534820746f6b656e7320696e20636f6e745f8201527f7261637400000000000000000000000000000000000000000000000000000000602082015250565b5f610c7f602483610ae0565b9150610c8a82610c25565b604082019050919050565b5f6020820190508181035f830152610cac81610c73565b9050919050565b5f819050919050565b610ccd610cc8826108d4565b610cb3565b82525050565b5f8160601b9050919050565b5f610ce982610cd3565b9050919050565b5f610cfa82610cdf565b9050919050565b610d12610d0d82610a52565b610cf0565b82525050565b5f610d238286610cbc565b602082019150610d338285610cbc565b602082019150610d438284610d01565b601482019150819050949350505050565b7f4e487b71000000000000000000000000000000000000000000000000000000005f52601260045260245ffd5b5f610d8b826108d4565b9150610d96836108d4565b925082610da657610da5610d54565b5b828206905092915050565b7f4e487b71000000000000000000000000000000000000000000000000000000005f52601160045260245ffd5b5f610de8826108d4565b9150610df3836108d4565b9250828201905080821115610e0b57610e0a610db1565b5b92915050565b5f604082019050610e245f830185610a63565b610e316020830184610932565b9392505050565b5f8115159050919050565b610e4c81610e38565b8114610e56575f80fd5b50565b5f81519050610e6781610e43565b92915050565b5f60208284031215610e8257610e816108d0565b5b5f610e8f84828501610e59565b91505092915050565b7f4f776e61626c653a206e6577206f776e657220697320746865207a65726f20615f8201527f6464726573730000000000000000000000000000000000000000000000000000602082015250565b5f610ef2602683610ae0565b9150610efd82610e98565b604082019050919050565b5f6020820190508181035f830152610f1f81610ee6565b9050919050565b7f4f776e61626c653a2063616c6c6572206973206e6f7420746865206f776e65725f82015250565b5f610f5a602083610ae0565b9150610f6582610f26565b602082019050919050565b5f6020820190508181035f830152610f8781610f4e565b905091905056fea26469706673582212207458547001479d4c6cb68577ce61bd3991e40e90a797721dedff060eb773c55764736f6c63430008140033",
  "immutableReferences": {},
  "source": "// SPDX-License-Identifier: MIT\npragma solidity ^0.8.0;\n\nimport \"../node_modules/@openzeppelin/contracts/token/ERC20/IERC20.sol\";\nimport \"../node_modules/@openzeppelin/contracts/token/ERC20/extensions/IERC20Metadata.sol\";\nimport \"../node_modules/@openzeppelin/contracts/access/Ownable.sol\";\n\n\n\ncontract FishingGame is Ownable {\n    struct FishType {\n        uint256 fishSize;   // \n        uint256 tokenReward; // \n    }\n\n    mapping(uint256 => FishType) public fishTypes;\n\n    IERC20 public fishToken; // FISH\n\n    uint256 public normalRodPrice = 0.1 ether; // \n    uint256 public superRodPrice = 1 ether;    // \n\n    event FishCaught(address indexed fisherman, uint256 fishSize, uint256 tokenReward);\n    event RodPurchased(address indexed buyer, uint256 price);\n\n    constructor(address _tokenAddress) {\n        fishToken = IERC20(_tokenAddress);\n\n        // \n        fishTypes[1] = FishType(5, 10);   // 510 FISH\n        fishTypes[2] = FishType(10, 20);  // 1020 FISH\n        fishTypes[3] = FishType(15, 30);  // 1530 FISH\n    }\n\n    function buyRod() external payable {\n        require(msg.value == normalRodPrice || msg.value == superRodPrice, \"Invalid rod price\");\n        emit RodPurchased(msg.sender, msg.value);\n    }\n\n    function goFishing() external {\n        require(msg.sender.balance >= normalRodPrice, \"Insufficient balance to go fishing\");\n        require(fishToken.balanceOf(address(this)) >= 100, \"Insufficient FISH tokens in contract\");\n\n        // \n        uint256 fishType = (uint256(keccak256(abi.encodePacked(block.timestamp, block.difficulty, msg.sender)))) % 3 + 1;\n        FishType memory fish = fishTypes[fishType];\n\n        // \n        if (fish.fishSize > 0) {\n            fishToken.transfer(msg.sender, fish.tokenReward);\n        }\n\n        emit FishCaught(msg.sender, fish.fishSize, fish.tokenReward);\n    }\n\n    function setFishTokenAddress(address _tokenAddress) external onlyOwner {\n        fishToken = IERC20(_tokenAddress);\n    }\n\n    function setRodPrices(uint256 _normalRodPrice, uint256 _superRodPrice) external onlyOwner {\n        normalRodPrice = _normalRodPrice;\n        superRodPrice = _superRodPrice;\n    }\n\n    // \n    function getNormalRodPrice() external view returns (uint256) {\n        return normalRodPrice;\n    }\n\n    function getSuperRodPrice() external view returns (uint256) {\n        return superRodPrice;\n    }\n}\n",
  "sourcePath": "/home/iniad/fishingdapp/contracts/FishingGame.sol",
  "compiler": {
    "name": "solc",
    "version": "0.8.20+commit.a1b79de6.Emscripten.clang"
  },
  "schemaVersion": "3.4.14",
  "updatedAt": "2023-10-06T07:17:42.010Z",
  "networkType": "ethereum",
  "devdoc": {
    "kind": "dev",
    "methods": {
      "owner()": {
        "details": "Returns the address of the current owner."
      },
      "renounceOwnership()": {
        "details": "Leaves the contract without owner. It will not be possible to call `onlyOwner` functions. Can only be called by the current owner. NOTE: Renouncing ownership will leave the contract without an owner, thereby disabling any functionality that is only available to the owner."
      },
      "transferOwnership(address)": {
        "details": "Transfers ownership of the contract to a new account (`newOwner`). Can only be called by the current owner."
      }
    },
    "version": 1
  },
  "userdoc": {
    "kind": "user",
    "methods": {},
    "version": 1
  }
}